:1000000009C016C015C014C013C012C011C010C062
:100010000FC00EC011241FBECFE9CDBF20E0A0E667
:10002000B0E001C01D92A836B207E1F757D06FC00B
:10003000E7CF87B3816087BB089587B38E7F87BB87
:10004000089586B3817008951092600088E08093CF
:1000500061001AC0F6DF8823E9F380E88A95F1F79A
:10006000F0DF882389F02091610081E090E002C0F8
:10007000880F991F2A95E2F790916000892B809351
:100080006000DFDF8111FDCF809161009FEF980F4D
:10009000909361008111DECF809160000895C9DFE7
:1000A0008FE79BEB0197F1F700C00000C6DF90E8F7
:1000B0009A95F1F7C6DF81110DC08FEB90E00197A3
:1000C000F1F700C00000BDDF882331F0BADF8111F5
:1000D000FDCF089581E0089581E008952FEF87E92D
:1000E0009AE3215080409040E1F700C00000D7DF44
:1000F0008111F4CFA9DFC2E6D0E08883A5DF898330
:10010000A3DF8A83A1DF8B839FDF8C83E7CFF89403
:02011000FFCF1F
:040000030000009E5B
:00000001FF
