S0140000617474696E793133556172742E7372656377
S113000009C016C015C045C013C012C011C010C02D
S11300100FC00EC011241FBECFE9CDBF20E0A0E663
S1130020B0E001C01D92A336B207E1F702D04EC082
S1130030E7CF12D08FED9EE20197F1F700C00000E8
S113004081E4C1E0C80F1CD08FEB92E10197F1F776
S113005000C000008C2FF5CF83E88093620089B73D
S1130060826089BF83B7826083BF8091620082BF50
S11300708FEF8093600087B3816087BB7894089585
S113008098B39E7F98BB9091620092BF809360006A
S113009008951F920F920FB60F9211248F9380919F
S11300A06000817088BB80916000869580936000B9
S11300B0809160008068809360008091620082BFBC
S11300C08F910F900FBE0F901F901895F894FFCF4B
S9030000FC
