:1000000009C00EC00DC00CC00BC00AC009C008C09A
:1000100007C006C011241FBECFE9CDBF85D093C055
:10002000EFCF98B321E030E002C0220F331F8A9552
:10003000E2F72095292328BB089598B321E030E00A
:1000400002C0220F331F8A95E2F7292B28BB08959F
:1000500087B3836087BB81E090E0EFDF80E090E0D2
:10006000ECDF089581E0DDDF8FEB9DE50197F1F78F
:1000700000C0000080E0D5DF089581E0D2DF8FEB83
:100080009DE50197F1F700C0000080E0D6DF8FEB1F
:100090009DE50197F1F700C0000081E0CEDF0895F3
:1000A0001F93CF93DF93182F88E090E020C0812F1B
:1000B00090E00C2E02C0959587950A94E2F780FF98
:1000C00003C081E0BADF02C081E0ABDF8FEB9DE5CA
:1000D0000197F1F700C0000080E0AFDF8FEB9DE5F6
:1000E0000197F1F700C0000080E09BDFCE01EC013A
:1000F0002197892BE1F681E0A0DF8FEB9DE5019749
:10010000F1F700C0000080E098DF8FEB9DE50197DC
:10011000F1F700C00000C6B380E083DF8C2F82704F
:10012000DF91CF911F91089593DF9CDF81E9B8DFC4
:10013000A4DF2FEF87E99AE3215080409040E1F758
:0A01400000C00000F2CFF894FFCFDA
:00000001FF
